:0400000056EF00F0C7
:060008000FEC00F01000F7
:100018009AEC00F010009EB014EF00F053EF00F0DF
:10002800896A100E0360036A03C0E8FF380FF96E8F
:1000380024EF00F02FEF00F039EF00F044EF00F06C
:10004800FE0E896E00C005F0053A0F0E05148BEC04
:1000580000F04CEF00F0FD0E896E00C005F00F0EA9
:1000680005148BEC00F04CEF00F0FB0E896E01C01C
:1000780005F0053A0F0E05148BEC00F04CEF00F07C
:10008800F70E896E01C005F00F0E05148BEC00F019
:10009800020E03269E907F0ECF6E55EF00F0F2926F
:1000A800027012000F0EC16E836A956A936A93807C
:1000B800926AD08EF194F18CF00EF26E920ED56E9B
:1000C8009F809D80410ECD6E7F0ECF6E010EF76E24
:1000D800F66A006A016A026A036A056A74EF00F048
:1000E80002A079EF00F07DEF00F0014A002A82EFCC
:1000F80000F0016681EF00F00006010686EC00F0D2
:1001080074EF00F002A286EF00F00292120005528E
:10011800240FF66E0800F5CF83FF1200C0F9A4B0D3
:10012800999282F880988883C6A1868EF29402827A
:060138004CEF00F0120084
:020000040030CA
:040000000023593C44
:02000500D180A8
:060008000FC00FE00F40E5
:00000001FF
